:100000000C942A000C9434000C9434000C943400AA
:100010000C9434000C9434000C9434000C94340090
:100020000C9434000C9434000C9434000C94340080
:100030000C9434000C9434000C9434000C94340070
:100040000C9434000C9434000C9434000C94340060
:100050000C94340011241FBECFE5D4E0DEBFCDBF29
:100060000E94D1030C94DA030C940000DF93CF9329
:1000700000D000D000D0CDB7DEB789836A838A81F3
:10008000813099F58981282F30E03E832D838D8141
:100090009E8181309105D1F02D813E812230310544
:1000A0002CF48D819E81009761F050C02D813E819E
:1000B0002230310581F08D819E818330910581F060
:1000C00045C0EAE3F0E08FEF808340C0E7E3F0E073
:1000D0008FEF80833BC0E4E3F0E08FEF808336C096
:1000E000E1E3F0E08FEF808331C08A81882371F5EE
:1000F0008981282F30E03C832B838B819C81813048
:100100009105C9F02B813C81223031052CF48B8183
:100110009C81009761F01AC02B813C81223031050F
:1001200071F08B819C818330910569F00FC0EAE307
:10013000F0E010820BC0E7E3F0E0108207C0E4E3D8
:10014000F0E0108203C0E1E3F0E0108226960FB6E3
:10015000F894DEBF0FBECDBFCF91DF910895DF933E
:10016000CF9300D000D0CDB7DEB789836A83898171
:10017000282F30E03C832B838B819C81813091053B
:10018000D1F02B813C81223031052CF48B819C8174
:10019000009761F01EC02B813C812230310581F037
:1001A0008B819C818330910581F013C0EBE3F0E0FB
:1001B0008A8180830EC0E8E3F0E08A81808309C0F1
:1001C000E5E3F0E08A81808304C0E2E3F0E08A8125
:1001D00080830F900F900F900F90CF91DF91089533
:1001E000DF93CF93CDB7DEB727970FB6F894DEBF76
:1001F0000FBECDBF89836A834B838981843008F029
:10020000EEC08A81883008F0EAC08B81813009F025
:100210006FC08981282F30E03F832E838E819F819C
:100220008130910549F12E813F81223031052CF436
:100230008E819F81009761F0D2C02E813F81223054
:10024000310571F18E819F8183309105E9F1C7C03D
:10025000AAE3B0E0EAE3F0E08081482F8A81282F0A
:1002600030E081E090E0022E02C0880F991F0A94CE
:10027000E2F7842B8C93B3C0A7E3B0E0E7E3F0E0B0
:100280008081482F8A81282F30E081E090E0022E83
:1002900002C0880F991F0A94E2F7842B8C939FC0A9
:1002A000A4E3B0E0E4E3F0E08081482F8A81282FC6
:1002B00030E081E090E0022E02C0880F991F0A947E
:1002C000E2F7842B8C938BC0A1E3B0E0E1E3F0E094
:1002D0008081482F8A81282F30E081E090E0022E33
:1002E00002C0880F991F0A94E2F7842B8C9377C081
:1002F0008B81882309F073C08981282F30E03D83EA
:100300002C838C819D818130910559F12C813D8117
:10031000223031052CF48C819D81009769F05FC0FB
:100320002C813D812230310589F18C819D81833082
:10033000910509F440C053C0AAE3B0E0EAE3F0E05D
:100340008081482F8A81282F30E081E090E0022EC2
:1003500002C0880F991F0A94E2F7809584238C933A
:100360003EC0A7E3B0E0E7E3F0E08081482F8A8158
:10037000282F30E081E090E0022E02C0880F991F04
:100380000A94E2F7809584238C9329C0A4E3B0E01B
:10039000E4E3F0E08081482F8A81282F30E081E07B
:1003A00090E0022E02C0880F991F0A94E2F7809510
:1003B00084238C9314C0A1E3B0E0E1E3F0E08081FA
:1003C000482F8A81282F30E081E090E0022E02C081
:1003D000880F991F0A94E2F7809584238C932796BF
:1003E0000FB6F894DEBF0FBECDBFCF91DF91089559
:1003F000DF93CF93CDB7DEB727970FB6F894DEBF64
:100400000FBECDBF89836A834B838981843008F016
:1004100077C08A81883008F073C08B81882309F007
:10042000E6C08981282F30E03F832E838E819F8113
:100430008130910549F12E813F81223031052CF424
:100440008E819F81009761F0D2C02E813F81223042
:10045000310571F18E819F8183309105E9F1C7C02B
:10046000ABE3B0E0EBE3F0E08081482F8A81282FF6
:1004700030E081E090E0022E02C0880F991F0A94BC
:10048000E2F7842B8C93B3C0A8E3B0E0E8E3F0E09C
:100490008081482F8A81282F30E081E090E0022E71
:1004A00002C0880F991F0A94E2F7842B8C939FC097
:1004B000A5E3B0E0E5E3F0E08081482F8A81282FB2
:1004C00030E081E090E0022E02C0880F991F0A946C
:1004D000E2F7842B8C938BC0A2E3B0E0E2E3F0E080
:1004E0008081482F8A81282F30E081E090E0022E21
:1004F00002C0880F991F0A94E2F7842B8C9377C06F
:100500008B81813009F073C08981282F30E03D83D1
:100510002C838C819D818130910559F12C813D8105
:10052000223031052CF48C819D81009769F05FC0E9
:100530002C813D812230310589F18C819D81833070
:10054000910509F440C053C0ABE3B0E0EBE3F0E049
:100550008081482F8A81282F30E081E090E0022EB0
:1005600002C0880F991F0A94E2F7809584238C9328
:100570003EC0A8E3B0E0E8E3F0E08081482F8A8144
:10058000282F30E081E090E0022E02C0880F991FF2
:100590000A94E2F7809584238C9329C0A5E3B0E008
:1005A000E5E3F0E08081482F8A81282F30E081E068
:1005B00090E0022E02C0880F991F0A94E2F78095FE
:1005C00084238C9314C0A2E3B0E0E2E3F0E08081E6
:1005D000482F8A81282F30E081E090E0022E02C06F
:1005E000880F991F0A94E2F7809584238C932796AD
:1005F0000FB6F894DEBF0FBECDBFCF91DF91089547
:10060000DF93CF9300D000D00F92CDB7DEB78A83AF
:100610006B838A81843008F06BC08B81883008F04E
:1006200067C08A81282F30E03D832C834C815D8117
:100630004130510541F18C819D818230910534F426
:100640002C813D812115310561F052C04C815D81C5
:100650004230510551F18C819D8183309105B9F172
:1006600047C0E9E3F0E08081282F30E08B81882FBC
:1006700090E0A90102C0559547958A95E2F7CA0115
:100680008170898335C0E6E3F0E08081282F30E077
:100690008B81882F90E0A90102C0559547958A95D6
:1006A000E2F7CA018170898323C0E3E3F0E080812F
:1006B000282F30E08B81882F90E0A90102C055954A
:1006C00047958A95E2F7CA018170898311C0E0E3FA
:1006D000F0E08081282F30E08B81882F90E0A90105
:1006E00002C0559547958A95E2F7CA0181708983C2
:1006F00089810F900F900F900F900F90CF91DF9105
:100700000895DF93CF93CDB7DEB780E061E00E941C
:10071000360080E060EF0E94AF00CF91DF91089536
:10072000DF93CF93CDB7DEB780E064E041E00E9475
:10073000F00080E064E040E00E94F80180E063E0C7
:1007400041E00E94F00080E063E040E00E94F80198
:10075000CF91DF910895DF93CF930F92CDB7DEB79E
:1007600080E060E041E00E94F00080E061E040E075
:100770000E94F00080E061E00E940003898389818B
:10078000882331F480E060E040E00E94F801F2CF7D
:100790008981813079F780E060E041E00E94F801D2
:1007A000E9CFDF93CF93CDB7DEB70E94AB03CF91F4
:0807B000DF910895F894FFCFDA
:00000001FF
